{
  "contractName": "HundredPercentNFT",
  "abi": [
    {
      "inputs": [],
      "stateMutability": "nonpayable",
      "type": "constructor"
    },
    {
      "anonymous": false,
      "inputs": [
        {
          "indexed": true,
          "internalType": "address",
          "name": "owner",
          "type": "address"
        },
        {
          "indexed": true,
          "internalType": "address",
          "name": "approved",
          "type": "address"
        },
        {
          "indexed": true,
          "internalType": "uint256",
          "name": "tokenId",
          "type": "uint256"
        }
      ],
      "name": "Approval",
      "type": "event"
    },
    {
      "anonymous": false,
      "inputs": [
        {
          "indexed": true,
          "internalType": "address",
          "name": "owner",
          "type": "address"
        },
        {
          "indexed": true,
          "internalType": "address",
          "name": "operator",
          "type": "address"
        },
        {
          "indexed": false,
          "internalType": "bool",
          "name": "approved",
          "type": "bool"
        }
      ],
      "name": "ApprovalForAll",
      "type": "event"
    },
    {
      "anonymous": false,
      "inputs": [
        {
          "indexed": true,
          "internalType": "address",
          "name": "_to",
          "type": "address"
        },
        {
          "indexed": true,
          "internalType": "address",
          "name": "_originalOwner",
          "type": "address"
        },
        {
          "indexed": false,
          "internalType": "uint256",
          "name": "_originalTokenId",
          "type": "uint256"
        },
        {
          "indexed": false,
          "internalType": "uint256",
          "name": "_boughtTokenId",
          "type": "uint256"
        },
        {
          "indexed": false,
          "internalType": "uint256",
          "name": "_price",
          "type": "uint256"
        },
        {
          "indexed": false,
          "internalType": "uint256",
          "name": "_commissionedPayment",
          "type": "uint256"
        },
        {
          "indexed": false,
          "internalType": "uint256",
          "name": "_deliveredPayment",
          "type": "uint256"
        }
      ],
      "name": "BoughtNFT",
      "type": "event"
    },
    {
      "anonymous": false,
      "inputs": [
        {
          "indexed": false,
          "internalType": "uint8",
          "name": "version",
          "type": "uint8"
        }
      ],
      "name": "Initialized",
      "type": "event"
    },
    {
      "anonymous": false,
      "inputs": [
        {
          "indexed": true,
          "internalType": "address",
          "name": "_from",
          "type": "address"
        },
        {
          "indexed": true,
          "internalType": "address",
          "name": "_to",
          "type": "address"
        }
      ],
      "name": "OwnerShipTransferred",
      "type": "event"
    },
    {
      "anonymous": false,
      "inputs": [
        {
          "indexed": false,
          "internalType": "uint256",
          "name": "_proposedId",
          "type": "uint256"
        },
        {
          "indexed": false,
          "internalType": "uint256",
          "name": "_proposedWith",
          "type": "uint256"
        },
        {
          "indexed": true,
          "internalType": "address",
          "name": "_proposer",
          "type": "address"
        }
      ],
      "name": "Proposed",
      "type": "event"
    },
    {
      "anonymous": false,
      "inputs": [
        {
          "indexed": true,
          "internalType": "address",
          "name": "_from",
          "type": "address"
        },
        {
          "indexed": true,
          "internalType": "address",
          "name": "_to",
          "type": "address"
        },
        {
          "indexed": false,
          "internalType": "uint256",
          "name": "_value",
          "type": "uint256"
        },
        {
          "indexed": false,
          "internalType": "uint256",
          "name": "_timeSoldOut",
          "type": "uint256"
        }
      ],
      "name": "SoldOut",
      "type": "event"
    },
    {
      "anonymous": false,
      "inputs": [
        {
          "indexed": true,
          "internalType": "address",
          "name": "from",
          "type": "address"
        },
        {
          "indexed": true,
          "internalType": "address",
          "name": "to",
          "type": "address"
        },
        {
          "indexed": true,
          "internalType": "uint256",
          "name": "tokenId",
          "type": "uint256"
        }
      ],
      "name": "Transfer",
      "type": "event"
    },
    {
      "inputs": [
        {
          "internalType": "address",
          "name": "to",
          "type": "address"
        },
        {
          "internalType": "uint256",
          "name": "tokenId",
          "type": "uint256"
        }
      ],
      "name": "approve",
      "outputs": [],
      "stateMutability": "nonpayable",
      "type": "function"
    },
    {
      "inputs": [
        {
          "internalType": "address",
          "name": "owner",
          "type": "address"
        }
      ],
      "name": "balanceOf",
      "outputs": [
        {
          "internalType": "uint256",
          "name": "",
          "type": "uint256"
        }
      ],
      "stateMutability": "view",
      "type": "function",
      "constant": true
    },
    {
      "inputs": [
        {
          "internalType": "uint256",
          "name": "tokenId",
          "type": "uint256"
        }
      ],
      "name": "getApproved",
      "outputs": [
        {
          "internalType": "address",
          "name": "",
          "type": "address"
        }
      ],
      "stateMutability": "view",
      "type": "function",
      "constant": true
    },
    {
      "inputs": [
        {
          "internalType": "address",
          "name": "owner",
          "type": "address"
        },
        {
          "internalType": "address",
          "name": "operator",
          "type": "address"
        }
      ],
      "name": "isApprovedForAll",
      "outputs": [
        {
          "internalType": "bool",
          "name": "",
          "type": "bool"
        }
      ],
      "stateMutability": "view",
      "type": "function",
      "constant": true
    },
    {
      "inputs": [],
      "name": "name",
      "outputs": [
        {
          "internalType": "string",
          "name": "",
          "type": "string"
        }
      ],
      "stateMutability": "view",
      "type": "function",
      "constant": true
    },
    {
      "inputs": [
        {
          "internalType": "uint256",
          "name": "tokenId",
          "type": "uint256"
        }
      ],
      "name": "ownerOf",
      "outputs": [
        {
          "internalType": "address",
          "name": "",
          "type": "address"
        }
      ],
      "stateMutability": "view",
      "type": "function",
      "constant": true
    },
    {
      "inputs": [
        {
          "internalType": "address",
          "name": "from",
          "type": "address"
        },
        {
          "internalType": "address",
          "name": "to",
          "type": "address"
        },
        {
          "internalType": "uint256",
          "name": "tokenId",
          "type": "uint256"
        }
      ],
      "name": "safeTransferFrom",
      "outputs": [],
      "stateMutability": "nonpayable",
      "type": "function"
    },
    {
      "inputs": [
        {
          "internalType": "address",
          "name": "from",
          "type": "address"
        },
        {
          "internalType": "address",
          "name": "to",
          "type": "address"
        },
        {
          "internalType": "uint256",
          "name": "tokenId",
          "type": "uint256"
        },
        {
          "internalType": "bytes",
          "name": "data",
          "type": "bytes"
        }
      ],
      "name": "safeTransferFrom",
      "outputs": [],
      "stateMutability": "nonpayable",
      "type": "function"
    },
    {
      "inputs": [
        {
          "internalType": "address",
          "name": "operator",
          "type": "address"
        },
        {
          "internalType": "bool",
          "name": "approved",
          "type": "bool"
        }
      ],
      "name": "setApprovalForAll",
      "outputs": [],
      "stateMutability": "nonpayable",
      "type": "function"
    },
    {
      "inputs": [
        {
          "internalType": "bytes4",
          "name": "interfaceId",
          "type": "bytes4"
        }
      ],
      "name": "supportsInterface",
      "outputs": [
        {
          "internalType": "bool",
          "name": "",
          "type": "bool"
        }
      ],
      "stateMutability": "view",
      "type": "function",
      "constant": true
    },
    {
      "inputs": [],
      "name": "symbol",
      "outputs": [
        {
          "internalType": "string",
          "name": "",
          "type": "string"
        }
      ],
      "stateMutability": "view",
      "type": "function",
      "constant": true
    },
    {
      "inputs": [
        {
          "internalType": "uint256",
          "name": "tokenId",
          "type": "uint256"
        }
      ],
      "name": "tokenURI",
      "outputs": [
        {
          "internalType": "string",
          "name": "",
          "type": "string"
        }
      ],
      "stateMutability": "view",
      "type": "function",
      "constant": true
    },
    {
      "inputs": [
        {
          "internalType": "address",
          "name": "from",
          "type": "address"
        },
        {
          "internalType": "address",
          "name": "to",
          "type": "address"
        },
        {
          "internalType": "uint256",
          "name": "tokenId",
          "type": "uint256"
        }
      ],
      "name": "transferFrom",
      "outputs": [],
      "stateMutability": "nonpayable",
      "type": "function"
    },
    {
      "inputs": [
        {
          "internalType": "string",
          "name": "_tokenName",
          "type": "string"
        },
        {
          "internalType": "string",
          "name": "_tokenSymbol",
          "type": "string"
        },
        {
          "internalType": "address",
          "name": "_defaultOwner",
          "type": "address"
        },
        {
          "internalType": "uint256",
          "name": "_proposedWithOriginal",
          "type": "uint256"
        },
        {
          "internalType": "uint256",
          "name": "_proposedWithReplica",
          "type": "uint256"
        }
      ],
      "name": "initialize",
      "outputs": [],
      "stateMutability": "nonpayable",
      "type": "function"
    },
    {
      "inputs": [
        {
          "internalType": "uint256",
          "name": "_proposeWith",
          "type": "uint256"
        },
        {
          "internalType": "string",
          "name": "tokenURI",
          "type": "string"
        }
      ],
      "name": "propose",
      "outputs": [],
      "stateMutability": "nonpayable",
      "type": "function"
    },
    {
      "inputs": [
        {
          "internalType": "uint256",
          "name": "_originalTokenId",
          "type": "uint256"
        },
        {
          "internalType": "uint256",
          "name": "_price",
          "type": "uint256"
        },
        {
          "internalType": "string",
          "name": "_newURI",
          "type": "string"
        },
        {
          "internalType": "bool",
          "name": "_useDiscount",
          "type": "bool"
        }
      ],
      "name": "buyNFT",
      "outputs": [],
      "stateMutability": "payable",
      "type": "function",
      "payable": true
    },
    {
      "inputs": [
        {
          "internalType": "address",
          "name": "_from",
          "type": "address"
        },
        {
          "internalType": "uint256",
          "name": "_tokenId",
          "type": "uint256"
        },
        {
          "internalType": "uint256",
          "name": "_price",
          "type": "uint256"
        },
        {
          "internalType": "uint256",
          "name": "_commission",
          "type": "uint256"
        }
      ],
      "name": "collectToken",
      "outputs": [],
      "stateMutability": "payable",
      "type": "function",
      "payable": true
    },
    {
      "inputs": [
        {
          "internalType": "address[]",
          "name": "_beneficiaries",
          "type": "address[]"
        },
        {
          "internalType": "string",
          "name": "_tokenURI",
          "type": "string"
        },
        {
          "internalType": "enum HundredPercentNFT.NFT_TYPE",
          "name": "_nftType",
          "type": "uint8"
        }
      ],
      "name": "releaseAirdrop",
      "outputs": [],
      "stateMutability": "nonpayable",
      "type": "function"
    },
    {
      "inputs": [
        {
          "internalType": "uint256",
          "name": "_tokenId",
          "type": "uint256"
        }
      ],
      "name": "getNftType",
      "outputs": [
        {
          "internalType": "enum HundredPercentNFT.NFT_TYPE",
          "name": "",
          "type": "uint8"
        }
      ],
      "stateMutability": "view",
      "type": "function",
      "constant": true
    },
    {
      "inputs": [
        {
          "internalType": "uint256",
          "name": "_tokenId",
          "type": "uint256"
        }
      ],
      "name": "burn",
      "outputs": [],
      "stateMutability": "nonpayable",
      "type": "function"
    },
    {
      "inputs": [
        {
          "internalType": "address",
          "name": "_newOwner",
          "type": "address"
        }
      ],
      "name": "transferOwnerShip",
      "outputs": [],
      "stateMutability": "nonpayable",
      "type": "function"
    },
    {
      "inputs": [],
      "name": "contractOwner",
      "outputs": [
        {
          "internalType": "address",
          "name": "_contractOwner",
          "type": "address"
        }
      ],
      "stateMutability": "view",
      "type": "function",
      "constant": true
    },
    {
      "inputs": [
        {
          "internalType": "uint256",
          "name": "_proposedWithOriginal",
          "type": "uint256"
        },
        {
          "internalType": "uint256",
          "name": "_proposedWithReplica",
          "type": "uint256"
        }
      ],
      "name": "setRoyaltiesOnProposal",
      "outputs": [],
      "stateMutability": "nonpayable",
      "type": "function"
    },
    {
      "inputs": [],
      "name": "getRoyaltiesOnProposal",
      "outputs": [
        {
          "internalType": "uint256",
          "name": "_forProposedWithOriginals",
          "type": "uint256"
        },
        {
          "internalType": "uint256",
          "name": "_forProposedWithReplicas",
          "type": "uint256"
        }
      ],
      "stateMutability": "view",
      "type": "function",
      "constant": true
    }
  ],
  "bytecode": "0x60806040523480156200001157600080fd5b50620000226200002860201b60201c565b620001d3565b600060019054906101000a900460ff16156200007b576040517f08c379a0000000000000000000000000000000000000000000000000000000008152600401620000729062000176565b60405180910390fd5b60ff801660008054906101000a900460ff1660ff161015620000ed5760ff6000806101000a81548160ff021916908360ff1602179055507f7f26b83ff96e1f2b6a682f133852f6798a09c465da95921460cefb384740249860ff604051620000e49190620001b6565b60405180910390a15b565b600082825260208201905092915050565b7f496e697469616c697a61626c653a20636f6e747261637420697320696e69746960008201527f616c697a696e6700000000000000000000000000000000000000000000000000602082015250565b60006200015e602783620000ef565b91506200016b8262000100565b604082019050919050565b6000602082019050818103600083015262000191816200014f565b9050919050565b600060ff82169050919050565b620001b08162000198565b82525050565b6000602082019050620001cd6000830184620001a5565b92915050565b615b8180620001e36000396000f3fe60806040526004361061014b5760003560e01c806370a08231116100b6578063a82620d51161006f578063a82620d51461046f578063b88d4fde146104ac578063c87b56dd146104d5578063ce606ee014610512578063d4f6b5ec1461053d578063e985e9c5146105665761014b565b806370a082311461036357806374823132146103a05780638863dd1a146103c957806395d89b41146103f25780639c69f5ec1461041d578063a22cb465146104465761014b565b806323b872dd1161010857806323b872dd14610263578063383b38881461028c57806342842e0e146102a857806342966c68146102d15780635347fb9f146102fa5780636352211e146103265761014b565b806301ffc9a71461015057806306fdde031461018d578063081812fc146101b8578063095ea7b3146101f55780631ae9dd4f1461021e5780631f93327214610247575b600080fd5b34801561015c57600080fd5b50610177600480360381019061017291906139ad565b6105a3565b60405161018491906139f5565b60405180910390f35b34801561019957600080fd5b506101a2610685565b6040516101af9190613aa0565b60405180910390f35b3480156101c457600080fd5b506101df60048036038101906101da9190613af8565b610717565b6040516101ec9190613b66565b60405180910390f35b34801561020157600080fd5b5061021c60048036038101906102179190613bad565b61075d565b005b34801561022a57600080fd5b5061024560048036038101906102409190613bed565b610874565b005b610261600480360381019061025c9190613c2d565b610965565b005b34801561026f57600080fd5b5061028a60048036038101906102859190613c94565b610f56565b005b6102a660048036038101906102a19190613d78565b610fb6565b005b3480156102b457600080fd5b506102cf60048036038101906102ca9190613c94565b6116f3565b005b3480156102dd57600080fd5b506102f860048036038101906102f39190613af8565b611713565b005b34801561030657600080fd5b5061030f6117ed565b60405161031d929190613e0f565b60405180910390f35b34801561033257600080fd5b5061034d60048036038101906103489190613af8565b6117fe565b60405161035a9190613b66565b60405180910390f35b34801561036f57600080fd5b5061038a60048036038101906103859190613e38565b611884565b6040516103979190613e65565b60405180910390f35b3480156103ac57600080fd5b506103c760048036038101906103c29190613fb0565b61193b565b005b3480156103d557600080fd5b506103f060048036038101906103eb9190613e38565b611b1e565b005b3480156103fe57600080fd5b50610407611cbb565b6040516104149190613aa0565b60405180910390f35b34801561042957600080fd5b50610444600480360381019061043f91906140de565b611d4d565b005b34801561045257600080fd5b5061046d60048036038101906104689190614173565b611ebf565b005b34801561047b57600080fd5b5061049660048036038101906104919190613af8565b611ed5565b6040516104a3919061422a565b60405180910390f35b3480156104b857600080fd5b506104d360048036038101906104ce91906142e6565b611f4e565b005b3480156104e157600080fd5b506104fc60048036038101906104f79190613af8565b611fb0565b6040516105099190613aa0565b60405180910390f35b34801561051e57600080fd5b506105276120c2565b6040516105349190613b66565b60405180910390f35b34801561054957600080fd5b50610564600480360381019061055f9190614369565b6120ec565b005b34801561057257600080fd5b5061058d600480360381019061058891906143c9565b612675565b60405161059a91906139f5565b60405180910390f35b60007f80ac58cd000000000000000000000000000000000000000000000000000000007bffffffffffffffffffffffffffffffffffffffffffffffffffffffff1916827bffffffffffffffffffffffffffffffffffffffffffffffffffffffff1916148061066e57507f5b5e139f000000000000000000000000000000000000000000000000000000007bffffffffffffffffffffffffffffffffffffffffffffffffffffffff1916827bffffffffffffffffffffffffffffffffffffffffffffffffffffffff1916145b8061067e575061067d82612709565b5b9050919050565b60606065805461069490614438565b80601f01602080910402602001604051908101604052809291908181526020018280546106c090614438565b801561070d5780601f106106e25761010080835404028352916020019161070d565b820191906000526020600020905b8154815290600101906020018083116106f057829003601f168201915b5050505050905090565b600061072282612773565b6069600083815260200190815260200160002060009054906101000a900473ffffffffffffffffffffffffffffffffffffffff169050919050565b6000610768826117fe565b90508073ffffffffffffffffffffffffffffffffffffffff168373ffffffffffffffffffffffffffffffffffffffff16036107d8576040517f08c379a00000000000000000000000000000000000000000000000000000000081526004016107cf906144db565b60405180910390fd5b8073ffffffffffffffffffffffffffffffffffffffff166107f76127be565b73ffffffffffffffffffffffffffffffffffffffff1614806108265750610825816108206127be565b612675565b5b610865576040517f08c379a000000000000000000000000000000000000000000000000000000000815260040161085c9061456d565b60405180910390fd5b61086f83836127c6565b505050565b60ca60009054906101000a900473ffffffffffffffffffffffffffffffffffffffff1673ffffffffffffffffffffffffffffffffffffffff163373ffffffffffffffffffffffffffffffffffffffff1614610904576040517f08c379a00000000000000000000000000000000000000000000000000000000081526004016108fb906145d9565b60405180910390fd5b6064821080156109145750606481105b610953576040517f08c379a000000000000000000000000000000000000000000000000000000000815260040161094a9061466b565b60405180910390fd5b8160cb819055508060cc819055505050565b60ca60149054906101000a900460ff16156109b5576040517f08c379a00000000000000000000000000000000000000000000000000000000081526004016109ac906146d7565b60405180910390fd5b600160ca60146101000a81548160ff021916908315150217905550600260038111156109e4576109e36141b3565b5b60d0600085815260200190815260200160002060009054906101000a900460ff166003811115610a1757610a166141b3565b5b14610a57576040517f08c379a0000000000000000000000000000000000000000000000000000000008152600401610a4e90614769565b60405180910390fd5b60003411610a9a576040517f08c379a0000000000000000000000000000000000000000000000000000000008152600401610a91906147d5565b60405180910390fd5b813414610adc576040517f08c379a0000000000000000000000000000000000000000000000000000000008152600401610ad390614841565b60405180910390fd5b8373ffffffffffffffffffffffffffffffffffffffff16610afc846117fe565b73ffffffffffffffffffffffffffffffffffffffff1614610b52576040517f08c379a0000000000000000000000000000000000000000000000000000000008152600401610b49906148ad565b60405180910390fd5b610b5c308461287f565b610b9b576040517f08c379a0000000000000000000000000000000000000000000000000000000008152600401610b929061493f565b60405180910390fd5b600080610ba83484612914565b915091503073ffffffffffffffffffffffffffffffffffffffff168673ffffffffffffffffffffffffffffffffffffffff161480610c33575060ca60009054906101000a900473ffffffffffffffffffffffffffffffffffffffff1673ffffffffffffffffffffffffffffffffffffffff168673ffffffffffffffffffffffffffffffffffffffff16145b15610d1757600060ca60009054906101000a900473ffffffffffffffffffffffffffffffffffffffff1673ffffffffffffffffffffffffffffffffffffffff1634604051610c8090614990565b60006040518083038185875af1925050503d8060008114610cbd576040519150601f19603f3d011682016040523d82523d6000602084013e610cc2565b606091505b5050905080610d06576040517f08c379a0000000000000000000000000000000000000000000000000000000008152600401610cfd906149f1565b60405180910390fd5b610d118733886129b3565b50610ecc565b600060ca60009054906101000a900473ffffffffffffffffffffffffffffffffffffffff1673ffffffffffffffffffffffffffffffffffffffff1682604051610d5f90614990565b60006040518083038185875af1925050503d8060008114610d9c576040519150601f19603f3d011682016040523d82523d6000602084013e610da1565b606091505b5050905060008773ffffffffffffffffffffffffffffffffffffffff1684604051610dcb90614990565b60006040518083038185875af1925050503d8060008114610e08576040519150601f19603f3d011682016040523d82523d6000602084013e610e0d565b606091505b50509050818015610e1b5750805b610e5a576040517f08c379a0000000000000000000000000000000000000000000000000000000008152600401610e51906149f1565b60405180910390fd5b3073ffffffffffffffffffffffffffffffffffffffff166323b872dd89338a6040518463ffffffff1660e01b8152600401610e9793929190614a11565b600060405180830381600087803b158015610eb157600080fd5b505af1158015610ec5573d6000803e3d6000fd5b5050505050505b3373ffffffffffffffffffffffffffffffffffffffff168673ffffffffffffffffffffffffffffffffffffffff167f7acd6728e5d97a22165ed2fa4eedb6b09c33dc8911b0ef5b5b699dbb3e8162463442604051610f2b929190613e0f565b60405180910390a35050600060ca60146101000a81548160ff02191690831515021790555050505050565b610f67610f616127be565b8261287f565b610fa6576040517f08c379a0000000000000000000000000000000000000000000000000000000008152600401610f9d90614aba565b60405180910390fd5b610fb18383836129b3565b505050565b60ca60149054906101000a900460ff1615611006576040517f08c379a0000000000000000000000000000000000000000000000000000000008152600401610ffd906146d7565b60405180910390fd5b600160ca60146101000a81548160ff02191690831515021790555060001515811515036110715760008403611070576040517f08c379a0000000000000000000000000000000000000000000000000000000008152600401611067906147d5565b60405180910390fd5b5b6001151561107e86612cac565b1515146110c0576040517f08c379a00000000000000000000000000000000000000000000000000000000081526004016110b790614b26565b60405180910390fd5b600060038111156110d4576110d36141b3565b5b60d0600087815260200190815260200160002060009054906101000a900460ff166003811115611107576111066141b3565b5b1480611157575060026003811115611122576111216141b3565b5b60d0600087815260200190815260200160002060009054906101000a900460ff166003811115611155576111546141b3565b5b145b611196576040517f08c379a000000000000000000000000000000000000000000000000000000000815260040161118d90614bb8565b60405180910390fd5b60006111a1866117fe565b90508434146111e5576040517f08c379a00000000000000000000000000000000000000000000000000000000081526004016111dc90614841565b60405180910390fd5b600080600087146114f25760ca60009054906101000a900473ffffffffffffffffffffffffffffffffffffffff1673ffffffffffffffffffffffffffffffffffffffff168373ffffffffffffffffffffffffffffffffffffffff16036112e357600060ca60009054906101000a900473ffffffffffffffffffffffffffffffffffffffff1673ffffffffffffffffffffffffffffffffffffffff163460405161128d90614990565b60006040518083038185875af1925050503d80600081146112ca576040519150601f19603f3d011682016040523d82523d6000602084013e6112cf565b606091505b50509050806112dd57600080fd5b506114f1565b600060038111156112f7576112f66141b3565b5b60cd60008a815260200190815260200160002060020160009054906101000a900460ff16600381111561132d5761132c6141b3565b5b036113475761133e3460cb54612914565b80925081935050505b6001600381111561135b5761135a6141b3565b5b60cd60008a815260200190815260200160002060020160009054906101000a900460ff166003811115611391576113906141b3565b5b036113ab576113a23460cc54612914565b80925081935050505b600060ca60009054906101000a900473ffffffffffffffffffffffffffffffffffffffff1673ffffffffffffffffffffffffffffffffffffffff16836040516113f390614990565b60006040518083038185875af1925050503d8060008114611430576040519150601f19603f3d011682016040523d82523d6000602084013e611435565b606091505b5050905060008473ffffffffffffffffffffffffffffffffffffffff168360405161145f90614990565b60006040518083038185875af1925050503d806000811461149c576040519150601f19603f3d011682016040523d82523d6000602084013e6114a1565b606091505b505090508180156114af5750805b6114ee576040517f08c379a00000000000000000000000000000000000000000000000000000000081526004016114e590614c24565b60405180910390fd5b50505b5b60006114ff338888612ced565b9050600115158515151480156115155750600088145b1561155b57600060d0600083815260200190815260200160002060006101000a81548160ff02191690836003811115611551576115506141b3565b5b0217905550611660565b60405180604001604052808a815260200160cd60008c815260200190815260200160002060000160009054906101000a900473ffffffffffffffffffffffffffffffffffffffff1673ffffffffffffffffffffffffffffffffffffffff1681525060cf60008381526020019081526020016000206000820151816000015560208201518160010160006101000a81548173ffffffffffffffffffffffffffffffffffffffff021916908373ffffffffffffffffffffffffffffffffffffffff160217905550905050600160d0600083815260200190815260200160002060006101000a81548160ff0219169083600381111561165a576116596141b3565b5b02179055505b8373ffffffffffffffffffffffffffffffffffffffff163373ffffffffffffffffffffffffffffffffffffffff167f43a3d26db07a7dfbfdb9fb4e3193a9a72f0b3cad245d23ef4e3ca12c4380463a8b848c87896040516116c5959493929190614c44565b60405180910390a350505050600060ca60146101000a81548160ff0219169083151502179055505050505050565b61170e83838360405180602001604052806000815250611f4e565b505050565b3373ffffffffffffffffffffffffffffffffffffffff1661173382612d6a565b73ffffffffffffffffffffffffffffffffffffffff1614806117a2575060ca60009054906101000a900473ffffffffffffffffffffffffffffffffffffffff1673ffffffffffffffffffffffffffffffffffffffff163373ffffffffffffffffffffffffffffffffffffffff16145b6117e1576040517f08c379a00000000000000000000000000000000000000000000000000000000081526004016117d890614ce3565b60405180910390fd5b6117ea81612da7565b50565b60008060cb5460cc54915091509091565b60008061180a83612d6a565b9050600073ffffffffffffffffffffffffffffffffffffffff168173ffffffffffffffffffffffffffffffffffffffff160361187b576040517f08c379a000000000000000000000000000000000000000000000000000000000815260040161187290614d4f565b60405180910390fd5b80915050919050565b60008073ffffffffffffffffffffffffffffffffffffffff168273ffffffffffffffffffffffffffffffffffffffff16036118f4576040517f08c379a00000000000000000000000000000000000000000000000000000000081526004016118eb90614de1565b60405180910390fd5b606860008373ffffffffffffffffffffffffffffffffffffffff1673ffffffffffffffffffffffffffffffffffffffff168152602001908152602001600020549050919050565b60008060019054906101000a900460ff1615905080801561196c5750600160008054906101000a900460ff1660ff16105b80611999575061197b30612dfa565b1580156119985750600160008054906101000a900460ff1660ff16145b5b6119d8576040517f08c379a00000000000000000000000000000000000000000000000000000000081526004016119cf90614e73565b60405180910390fd5b60016000806101000a81548160ff021916908360ff1602179055508015611a15576001600060016101000a81548160ff0219169083151502179055505b611a1f8686612e1d565b8360ca60006101000a81548173ffffffffffffffffffffffffffffffffffffffff021916908373ffffffffffffffffffffffffffffffffffffffff160217905550606483108015611a705750606482105b611aaf576040517f08c379a0000000000000000000000000000000000000000000000000000000008152600401611aa69061466b565b60405180910390fd5b8260cb819055508160cc819055508015611b165760008060016101000a81548160ff0219169083151502179055507f7f26b83ff96e1f2b6a682f133852f6798a09c465da95921460cefb38474024986001604051611b0d9190614ee5565b60405180910390a15b505050505050565b60ca60009054906101000a900473ffffffffffffffffffffffffffffffffffffffff1673ffffffffffffffffffffffffffffffffffffffff163373ffffffffffffffffffffffffffffffffffffffff1614611bae576040517f08c379a0000000000000000000000000000000000000000000000000000000008152600401611ba5906145d9565b60405180910390fd5b600073ffffffffffffffffffffffffffffffffffffffff168173ffffffffffffffffffffffffffffffffffffffff1603611c1d576040517f08c379a0000000000000000000000000000000000000000000000000000000008152600401611c1490614f4c565b60405180910390fd5b8060ca60006101000a81548173ffffffffffffffffffffffffffffffffffffffff021916908373ffffffffffffffffffffffffffffffffffffffff1602179055508073ffffffffffffffffffffffffffffffffffffffff163373ffffffffffffffffffffffffffffffffffffffff167f370116ad724b3fc87a2f6ff5e76e5a8cc7045b232d1431b7a4bca898c26fdace60405160405180910390a350565b606060668054611cca90614438565b80601f0160208091040260200160405190810160405280929190818152602001828054611cf690614438565b8015611d435780601f10611d1857610100808354040283529160200191611d43565b820191906000526020600020905b815481529060010190602001808311611d2657829003601f168201915b5050505050905090565b60ca60009054906101000a900473ffffffffffffffffffffffffffffffffffffffff1673ffffffffffffffffffffffffffffffffffffffff163373ffffffffffffffffffffffffffffffffffffffff1614611ddd576040517f08c379a0000000000000000000000000000000000000000000000000000000008152600401611dd4906145d9565b60405180910390fd5b6019858590501115611e24576040517f08c379a0000000000000000000000000000000000000000000000000000000008152600401611e1b90614fde565b60405180910390fd5b60005b85859050811015611eb7576000611e66878784818110611e4a57611e49614ffe565b5b9050602002016020810190611e5f9190613e38565b8686612ced565b90508260d0600083815260200190815260200160002060006101000a81548160ff02191690836003811115611e9e57611e9d6141b3565b5b0217905550508080611eaf9061505c565b915050611e27565b505050505050565b611ed1611eca6127be565b8383612e7a565b5050565b600060011515611ee483612cac565b151514611f26576040517f08c379a0000000000000000000000000000000000000000000000000000000008152600401611f1d90614b26565b60405180910390fd5b60d0600083815260200190815260200160002060009054906101000a900460ff169050919050565b611f5f611f596127be565b8361287f565b611f9e576040517f08c379a0000000000000000000000000000000000000000000000000000000008152600401611f9590614aba565b60405180910390fd5b611faa84848484612fe6565b50505050565b6060611fbb82612773565b6000609760008481526020019081526020016000208054611fdb90614438565b80601f016020809104026020016040519081016040528092919081815260200182805461200790614438565b80156120545780601f1061202957610100808354040283529160200191612054565b820191906000526020600020905b81548152906001019060200180831161203757829003601f168201915b505050505090506000612065613042565b9050600081510361207a5781925050506120bd565b6000825111156120af5780826040516020016120979291906150e0565b604051602081830303815290604052925050506120bd565b6120b884613059565b925050505b919050565b600060ca60009054906101000a900473ffffffffffffffffffffffffffffffffffffffff16905090565b6000151560ce600085815260200190815260200160002060009054906101000a900460ff16151514612153576040517f08c379a000000000000000000000000000000000000000000000000000000000815260040161214a90615150565b60405180910390fd5b60ca60009054906101000a900473ffffffffffffffffffffffffffffffffffffffff1673ffffffffffffffffffffffffffffffffffffffff163373ffffffffffffffffffffffffffffffffffffffff1614612399573373ffffffffffffffffffffffffffffffffffffffff166121c8846117fe565b73ffffffffffffffffffffffffffffffffffffffff161461221e576040517f08c379a0000000000000000000000000000000000000000000000000000000008152600401612215906148ad565b60405180910390fd5b60006003811115612232576122316141b3565b5b60d0600085815260200190815260200160002060009054906101000a900460ff166003811115612265576122646141b3565b5b14806122b55750600160038111156122805761227f6141b3565b5b60d0600085815260200190815260200160002060009054906101000a900460ff1660038111156122b3576122b26141b3565b5b145b6122f4576040517f08c379a00000000000000000000000000000000000000000000000000000000081526004016122eb906151bc565b60405180910390fd5b3373ffffffffffffffffffffffffffffffffffffffff1660cf600085815260200190815260200160002060010160009054906101000a900473ffffffffffffffffffffffffffffffffffffffff1673ffffffffffffffffffffffffffffffffffffffff1603612398576040517f08c379a000000000000000000000000000000000000000000000000000000000815260040161238f9061524e565b60405180910390fd5b5b60008314612444573373ffffffffffffffffffffffffffffffffffffffff166123c1846117fe565b73ffffffffffffffffffffffffffffffffffffffff1614612417576040517f08c379a000000000000000000000000000000000000000000000000000000000815260040161240e906148ad565b60405180910390fd5b600160ce600085815260200190815260200160002060006101000a81548160ff0219169083151502179055505b6000612451338484612ced565b905060405180606001604052803373ffffffffffffffffffffffffffffffffffffffff16815260200185815260200160d0600087815260200190815260200160002060009054906101000a900460ff1660038111156124b3576124b26141b3565b5b81525060cd600083815260200190815260200160002060008201518160000160006101000a81548173ffffffffffffffffffffffffffffffffffffffff021916908373ffffffffffffffffffffffffffffffffffffffff1602179055506020820151816001015560408201518160020160006101000a81548160ff02191690836003811115612545576125446141b3565b5b021790555090505060ca60009054906101000a900473ffffffffffffffffffffffffffffffffffffffff1673ffffffffffffffffffffffffffffffffffffffff163373ffffffffffffffffffffffffffffffffffffffff16146125e257600260d0600083815260200190815260200160002060006101000a81548160ff021916908360038111156125d9576125d86141b3565b5b0217905561261e565b600060d0600083815260200190815260200160002060006101000a81548160ff02191690836003811115612619576126186141b3565b5b021790555b503373ffffffffffffffffffffffffffffffffffffffff167f24b1a087ad3112ce607caf511a625cf8c636c3a16d1d8cbe5b93cb97d95b4a248286604051612667929190613e0f565b60405180910390a250505050565b6000606a60008473ffffffffffffffffffffffffffffffffffffffff1673ffffffffffffffffffffffffffffffffffffffff16815260200190815260200160002060008373ffffffffffffffffffffffffffffffffffffffff1673ffffffffffffffffffffffffffffffffffffffff16815260200190815260200160002060009054906101000a900460ff16905092915050565b60007f01ffc9a7000000000000000000000000000000000000000000000000000000007bffffffffffffffffffffffffffffffffffffffffffffffffffffffff1916827bffffffffffffffffffffffffffffffffffffffffffffffffffffffff1916149050919050565b61277c81612cac565b6127bb576040517f08c379a00000000000000000000000000000000000000000000000000000000081526004016127b290614d4f565b60405180910390fd5b50565b600033905090565b816069600083815260200190815260200160002060006101000a81548173ffffffffffffffffffffffffffffffffffffffff021916908373ffffffffffffffffffffffffffffffffffffffff160217905550808273ffffffffffffffffffffffffffffffffffffffff16612839836117fe565b73ffffffffffffffffffffffffffffffffffffffff167f8c5be1e5ebec7d5bd14f71427d1e84f3dd0314c0f7b2291e5b200ac8c7c3b92560405160405180910390a45050565b60008061288b836117fe565b90508073ffffffffffffffffffffffffffffffffffffffff168473ffffffffffffffffffffffffffffffffffffffff1614806128cd57506128cc8185612675565b5b8061290b57508373ffffffffffffffffffffffffffffffffffffffff166128f384610717565b73ffffffffffffffffffffffffffffffffffffffff16145b91505092915050565b6000806064831061295a576040517f08c379a0000000000000000000000000000000000000000000000000000000008152600401612951906152e0565b60405180910390fd5b60008360646129699190615300565b905060008460648761297b9190615363565b6129859190615394565b90506000826064886129979190615363565b6129a19190615394565b90508082945094505050509250929050565b8273ffffffffffffffffffffffffffffffffffffffff166129d3826117fe565b73ffffffffffffffffffffffffffffffffffffffff1614612a29576040517f08c379a0000000000000000000000000000000000000000000000000000000008152600401612a2090615448565b60405180910390fd5b600073ffffffffffffffffffffffffffffffffffffffff168273ffffffffffffffffffffffffffffffffffffffff1603612a98576040517f08c379a0000000000000000000000000000000000000000000000000000000008152600401612a8f906154da565b60405180910390fd5b612aa583838360016130c1565b8273ffffffffffffffffffffffffffffffffffffffff16612ac5826117fe565b73ffffffffffffffffffffffffffffffffffffffff1614612b1b576040517f08c379a0000000000000000000000000000000000000000000000000000000008152600401612b1290615448565b60405180910390fd5b6069600082815260200190815260200160002060006101000a81549073ffffffffffffffffffffffffffffffffffffffff02191690556001606860008573ffffffffffffffffffffffffffffffffffffffff1673ffffffffffffffffffffffffffffffffffffffff168152602001908152602001600020600082825403925050819055506001606860008473ffffffffffffffffffffffffffffffffffffffff1673ffffffffffffffffffffffffffffffffffffffff16815260200190815260200160002060008282540192505081905550816067600083815260200190815260200160002060006101000a81548173ffffffffffffffffffffffffffffffffffffffff021916908373ffffffffffffffffffffffffffffffffffffffff160217905550808273ffffffffffffffffffffffffffffffffffffffff168473ffffffffffffffffffffffffffffffffffffffff167fddf252ad1be2c89b69c2b068fc378daa952ba7f163c4a11628f55a4df523b3ef60405160405180910390a4612ca783838360016130c7565b505050565b60008073ffffffffffffffffffffffffffffffffffffffff16612cce83612d6a565b73ffffffffffffffffffffffffffffffffffffffff1614159050919050565b6000612cf960c96130cd565b6000612d0560c96130e3565b9050612d1185826130f1565b612d5f8185858080601f016020809104026020016040519081016040528093929190818152602001838380828437600081840152601f19601f8201169050808301925050505050505061330e565b809150509392505050565b60006067600083815260200190815260200160002060009054906101000a900473ffffffffffffffffffffffffffffffffffffffff169050919050565b612db08161337b565b6000609760008381526020019081526020016000208054612dd090614438565b905014612df757609760008281526020019081526020016000206000612df691906138e4565b5b50565b6000808273ffffffffffffffffffffffffffffffffffffffff163b119050919050565b600060019054906101000a900460ff16612e6c576040517f08c379a0000000000000000000000000000000000000000000000000000000008152600401612e639061556c565b60405180910390fd5b612e7682826134c9565b5050565b8173ffffffffffffffffffffffffffffffffffffffff168373ffffffffffffffffffffffffffffffffffffffff1603612ee8576040517f08c379a0000000000000000000000000000000000000000000000000000000008152600401612edf906155d8565b60405180910390fd5b80606a60008573ffffffffffffffffffffffffffffffffffffffff1673ffffffffffffffffffffffffffffffffffffffff16815260200190815260200160002060008473ffffffffffffffffffffffffffffffffffffffff1673ffffffffffffffffffffffffffffffffffffffff16815260200190815260200160002060006101000a81548160ff0219169083151502179055508173ffffffffffffffffffffffffffffffffffffffff168373ffffffffffffffffffffffffffffffffffffffff167f17307eab39ab6107e8899845ad3d59bd9653f200f220920489ca2b5937696c3183604051612fd991906139f5565b60405180910390a3505050565b612ff18484846129b3565b612ffd8484848461353c565b61303c576040517f08c379a00000000000000000000000000000000000000000000000000000000081526004016130339061566a565b60405180910390fd5b50505050565b606060405180602001604052806000815250905090565b606061306482612773565b600061306e613042565b9050600081511161308e57604051806020016040528060008152506130b9565b80613098846136c3565b6040516020016130a99291906150e0565b6040516020818303038152906040525b915050919050565b50505050565b50505050565b6001816000016000828254019250508190555050565b600081600001549050919050565b600073ffffffffffffffffffffffffffffffffffffffff168273ffffffffffffffffffffffffffffffffffffffff1603613160576040517f08c379a0000000000000000000000000000000000000000000000000000000008152600401613157906156d6565b60405180910390fd5b61316981612cac565b156131a9576040517f08c379a00000000000000000000000000000000000000000000000000000000081526004016131a090615742565b60405180910390fd5b6131b76000838360016130c1565b6131c081612cac565b15613200576040517f08c379a00000000000000000000000000000000000000000000000000000000081526004016131f790615742565b60405180910390fd5b6001606860008473ffffffffffffffffffffffffffffffffffffffff1673ffffffffffffffffffffffffffffffffffffffff16815260200190815260200160002060008282540192505081905550816067600083815260200190815260200160002060006101000a81548173ffffffffffffffffffffffffffffffffffffffff021916908373ffffffffffffffffffffffffffffffffffffffff160217905550808273ffffffffffffffffffffffffffffffffffffffff16600073ffffffffffffffffffffffffffffffffffffffff167fddf252ad1be2c89b69c2b068fc378daa952ba7f163c4a11628f55a4df523b3ef60405160405180910390a461330a6000838360016130c7565b5050565b61331782612cac565b613356576040517f08c379a000000000000000000000000000000000000000000000000000000000815260040161334d906157d4565b60405180910390fd5b806097600084815260200190815260200160002090816133769190615996565b505050565b6000613386826117fe565b90506133968160008460016130c1565b61339f826117fe565b90506069600083815260200190815260200160002060006101000a81549073ffffffffffffffffffffffffffffffffffffffff02191690556001606860008373ffffffffffffffffffffffffffffffffffffffff1673ffffffffffffffffffffffffffffffffffffffff168152602001908152602001600020600082825403925050819055506067600083815260200190815260200160002060006101000a81549073ffffffffffffffffffffffffffffffffffffffff021916905581600073ffffffffffffffffffffffffffffffffffffffff168273ffffffffffffffffffffffffffffffffffffffff167fddf252ad1be2c89b69c2b068fc378daa952ba7f163c4a11628f55a4df523b3ef60405160405180910390a46134c58160008460016130c7565b5050565b600060019054906101000a900460ff16613518576040517f08c379a000000000000000000000000000000000000000000000000000000000815260040161350f9061556c565b60405180910390fd5b81606590816135279190615996565b5080606690816135379190615996565b505050565b600061355d8473ffffffffffffffffffffffffffffffffffffffff16612dfa565b156136b6578373ffffffffffffffffffffffffffffffffffffffff1663150b7a026135866127be565b8786866040518563ffffffff1660e01b81526004016135a89493929190615abd565b6020604051808303816000875af19250505080156135e457506040513d601f19601f820116820180604052508101906135e19190615b1e565b60015b613666573d8060008114613614576040519150601f19603f3d011682016040523d82523d6000602084013e613619565b606091505b50600081510361365e576040517f08c379a00000000000000000000000000000000000000000000000000000000081526004016136559061566a565b60405180910390fd5b805181602001fd5b63150b7a0260e01b7bffffffffffffffffffffffffffffffffffffffffffffffffffffffff1916817bffffffffffffffffffffffffffffffffffffffffffffffffffffffff1916149150506136bb565b600190505b949350505050565b6060600060016136d284613791565b01905060008167ffffffffffffffff8111156136f1576136f0613e85565b5b6040519080825280601f01601f1916602001820160405280156137235781602001600182028036833780820191505090505b509050600082602001820190505b600115613786578080600190039150507f3031323334353637383961626364656600000000000000000000000000000000600a86061a8153600a858161377a57613779615334565b5b04945060008503613731575b819350505050919050565b600080600090507a184f03e93ff9f4daa797ed6e38ed64bf6a1f01000000000000000083106137ef577a184f03e93ff9f4daa797ed6e38ed64bf6a1f01000000000000000083816137e5576137e4615334565b5b0492506040810190505b6d04ee2d6d415b85acef8100000000831061382c576d04ee2d6d415b85acef8100000000838161382257613821615334565b5b0492506020810190505b662386f26fc10000831061385b57662386f26fc10000838161385157613850615334565b5b0492506010810190505b6305f5e1008310613884576305f5e100838161387a57613879615334565b5b0492506008810190505b61271083106138a957612710838161389f5761389e615334565b5b0492506004810190505b606483106138cc57606483816138c2576138c1615334565b5b0492506002810190505b600a83106138db576001810190505b80915050919050565b5080546138f090614438565b6000825580601f106139025750613921565b601f0160209004906000526020600020908101906139209190613924565b5b50565b5b8082111561393d576000816000905550600101613925565b5090565b6000604051905090565b600080fd5b600080fd5b60007fffffffff0000000000000000000000000000000000000000000000000000000082169050919050565b61398a81613955565b811461399557600080fd5b50565b6000813590506139a781613981565b92915050565b6000602082840312156139c3576139c261394b565b5b60006139d184828501613998565b91505092915050565b60008115159050919050565b6139ef816139da565b82525050565b6000602082019050613a0a60008301846139e6565b92915050565b600081519050919050565b600082825260208201905092915050565b60005b83811015613a4a578082015181840152602081019050613a2f565b60008484015250505050565b6000601f19601f8301169050919050565b6000613a7282613a10565b613a7c8185613a1b565b9350613a8c818560208601613a2c565b613a9581613a56565b840191505092915050565b60006020820190508181036000830152613aba8184613a67565b905092915050565b6000819050919050565b613ad581613ac2565b8114613ae057600080fd5b50565b600081359050613af281613acc565b92915050565b600060208284031215613b0e57613b0d61394b565b5b6000613b1c84828501613ae3565b91505092915050565b600073ffffffffffffffffffffffffffffffffffffffff82169050919050565b6000613b5082613b25565b9050919050565b613b6081613b45565b82525050565b6000602082019050613b7b6000830184613b57565b92915050565b613b8a81613b45565b8114613b9557600080fd5b50565b600081359050613ba781613b81565b92915050565b60008060408385031215613bc457613bc361394b565b5b6000613bd285828601613b98565b9250506020613be385828601613ae3565b9150509250929050565b60008060408385031215613c0457613c0361394b565b5b6000613c1285828601613ae3565b9250506020613c2385828601613ae3565b9150509250929050565b60008060008060808587031215613c4757613c4661394b565b5b6000613c5587828801613b98565b9450506020613c6687828801613ae3565b9350506040613c7787828801613ae3565b9250506060613c8887828801613ae3565b91505092959194509250565b600080600060608486031215613cad57613cac61394b565b5b6000613cbb86828701613b98565b9350506020613ccc86828701613b98565b9250506040613cdd86828701613ae3565b9150509250925092565b600080fd5b600080fd5b600080fd5b60008083601f840112613d0c57613d0b613ce7565b5b8235905067ffffffffffffffff811115613d2957613d28613cec565b5b602083019150836001820283011115613d4557613d44613cf1565b5b9250929050565b613d55816139da565b8114613d6057600080fd5b50565b600081359050613d7281613d4c565b92915050565b600080600080600060808688031215613d9457613d9361394b565b5b6000613da288828901613ae3565b9550506020613db388828901613ae3565b945050604086013567ffffffffffffffff811115613dd457613dd3613950565b5b613de088828901613cf6565b93509350506060613df388828901613d63565b9150509295509295909350565b613e0981613ac2565b82525050565b6000604082019050613e246000830185613e00565b613e316020830184613e00565b9392505050565b600060208284031215613e4e57613e4d61394b565b5b6000613e5c84828501613b98565b91505092915050565b6000602082019050613e7a6000830184613e00565b92915050565b600080fd5b7f4e487b7100000000000000000000000000000000000000000000000000000000600052604160045260246000fd5b613ebd82613a56565b810181811067ffffffffffffffff82111715613edc57613edb613e85565b5b80604052505050565b6000613eef613941565b9050613efb8282613eb4565b919050565b600067ffffffffffffffff821115613f1b57613f1a613e85565b5b613f2482613a56565b9050602081019050919050565b82818337600083830152505050565b6000613f53613f4e84613f00565b613ee5565b905082815260208101848484011115613f6f57613f6e613e80565b5b613f7a848285613f31565b509392505050565b600082601f830112613f9757613f96613ce7565b5b8135613fa7848260208601613f40565b91505092915050565b600080600080600060a08688031215613fcc57613fcb61394b565b5b600086013567ffffffffffffffff811115613fea57613fe9613950565b5b613ff688828901613f82565b955050602086013567ffffffffffffffff81111561401757614016613950565b5b61402388828901613f82565b945050604061403488828901613b98565b935050606061404588828901613ae3565b925050608061405688828901613ae3565b9150509295509295909350565b60008083601f84011261407957614078613ce7565b5b8235905067ffffffffffffffff81111561409657614095613cec565b5b6020830191508360208202830111156140b2576140b1613cf1565b5b9250929050565b600481106140c657600080fd5b50565b6000813590506140d8816140b9565b92915050565b6000806000806000606086880312156140fa576140f961394b565b5b600086013567ffffffffffffffff81111561411857614117613950565b5b61412488828901614063565b9550955050602086013567ffffffffffffffff81111561414757614146613950565b5b61415388828901613cf6565b93509350506040614166888289016140c9565b9150509295509295909350565b6000806040838503121561418a5761418961394b565b5b600061419885828601613b98565b92505060206141a985828601613d63565b9150509250929050565b7f4e487b7100000000000000000000000000000000000000000000000000000000600052602160045260246000fd5b600481106141f3576141f26141b3565b5b50565b6000819050614204826141e2565b919050565b6000614214826141f6565b9050919050565b61422481614209565b82525050565b600060208201905061423f600083018461421b565b92915050565b600067ffffffffffffffff8211156142605761425f613e85565b5b61426982613a56565b9050602081019050919050565b600061428961428484614245565b613ee5565b9050828152602081018484840111156142a5576142a4613e80565b5b6142b0848285613f31565b509392505050565b600082601f8301126142cd576142cc613ce7565b5b81356142dd848260208601614276565b91505092915050565b60008060008060808587031215614300576142ff61394b565b5b600061430e87828801613b98565b945050602061431f87828801613b98565b935050604061433087828801613ae3565b925050606085013567ffffffffffffffff81111561435157614350613950565b5b61435d878288016142b8565b91505092959194509250565b6000806000604084860312156143825761438161394b565b5b600061439086828701613ae3565b935050602084013567ffffffffffffffff8111156143b1576143b0613950565b5b6143bd86828701613cf6565b92509250509250925092565b600080604083850312156143e0576143df61394b565b5b60006143ee85828601613b98565b92505060206143ff85828601613b98565b9150509250929050565b7f4e487b7100000000000000000000000000000000000000000000000000000000600052602260045260246000fd5b6000600282049050600182168061445057607f821691505b60208210810361446357614462614409565b5b50919050565b7f4552433732313a20617070726f76616c20746f2063757272656e74206f776e6560008201527f7200000000000000000000000000000000000000000000000000000000000000602082015250565b60006144c5602183613a1b565b91506144d082614469565b604082019050919050565b600060208201905081810360008301526144f4816144b8565b9050919050565b7f4552433732313a20617070726f76652063616c6c6572206973206e6f7420746f60008201527f6b656e206f776e6572206f7220617070726f76656420666f7220616c6c000000602082015250565b6000614557603d83613a1b565b9150614562826144fb565b604082019050919050565b600060208201905081810360008301526145868161454a565b9050919050565b7f496e76616c69642073656e646572000000000000000000000000000000000000600082015250565b60006145c3600e83613a1b565b91506145ce8261458d565b602082019050919050565b600060208201905081810360008301526145f2816145b6565b9050919050565b7f526f79616c74696573206d757374206265206c6573736572207468616e20313060008201527f3000000000000000000000000000000000000000000000000000000000000000602082015250565b6000614655602183613a1b565b9150614660826145f9565b604082019050919050565b6000602082019050818103600083015261468481614648565b9050919050565b7f6e6f2072652d656e7472616e6379000000000000000000000000000000000000600082015250565b60006146c1600e83613a1b565b91506146cc8261468b565b602082019050919050565b600060208201905081810360008301526146f0816146b4565b9050919050565b7f4f6e6c792070726f706f736564207368697274732063616e206265206175637460008201527f696f6e6564000000000000000000000000000000000000000000000000000000602082015250565b6000614753602583613a1b565b915061475e826146f7565b604082019050919050565b6000602082019050818103600083015261478281614746565b9050919050565b7f56616c75652063616e2774206265207a65726f00000000000000000000000000600082015250565b60006147bf601383613a1b565b91506147ca82614789565b602082019050919050565b600060208201905081810360008301526147ee816147b2565b9050919050565b7f546f6b656e2073656e7420646f65736e2774206d617463682070726963650000600082015250565b600061482b601e83613a1b565b9150614836826147f5565b602082019050919050565b6000602082019050818103600083015261485a8161481e565b9050919050565b7f496e76616c696420746f6b656e206f776e657200000000000000000000000000600082015250565b6000614897601383613a1b565b91506148a282614861565b602082019050919050565b600060208201905081810360008301526148c68161488a565b9050919050565b7f436f6e7472616374206e6f7420617070726f76656420666f722074686973207460008201527f6f6b656e00000000000000000000000000000000000000000000000000000000602082015250565b6000614929602483613a1b565b9150614934826148cd565b604082019050919050565b600060208201905081810360008301526149588161491c565b9050919050565b600081905092915050565b50565b600061497a60008361495f565b91506149858261496a565b600082019050919050565b600061499b8261496d565b9150819050919050565b7f6661696c656420746f2073656e64204574686572000000000000000000000000600082015250565b60006149db601483613a1b565b91506149e6826149a5565b602082019050919050565b60006020820190508181036000830152614a0a816149ce565b9050919050565b6000606082019050614a266000830186613b57565b614a336020830185613b57565b614a406040830184613e00565b949350505050565b7f4552433732313a2063616c6c6572206973206e6f7420746f6b656e206f776e6560008201527f72206f7220617070726f76656400000000000000000000000000000000000000602082015250565b6000614aa4602d83613a1b565b9150614aaf82614a48565b604082019050919050565b60006020820190508181036000830152614ad381614a97565b9050919050565b7f546f6b656e20646f6573206e6f74206578697374000000000000000000000000600082015250565b6000614b10601483613a1b565b9150614b1b82614ada565b602082019050919050565b60006020820190508181036000830152614b3f81614b03565b9050919050565b7f5265706c6963612063616e206f6e6c7920626520707572636861736564206f6e60008201527f2050726f706f736564206f72204f726967696e616c2073686972747300000000602082015250565b6000614ba2603c83613a1b565b9150614bad82614b46565b604082019050919050565b60006020820190508181036000830152614bd181614b95565b9050919050565b7f4661696c656420746f2073656e64204574686572000000000000000000000000600082015250565b6000614c0e601483613a1b565b9150614c1982614bd8565b602082019050919050565b60006020820190508181036000830152614c3d81614c01565b9050919050565b600060a082019050614c596000830188613e00565b614c666020830187613e00565b614c736040830186613e00565b614c806060830185613e00565b614c8d6080830184613e00565b9695505050505050565b7f4e6f742020617574686f72697a656420746f206275726e20746f6b656e000000600082015250565b6000614ccd601d83613a1b565b9150614cd882614c97565b602082019050919050565b60006020820190508181036000830152614cfc81614cc0565b9050919050565b7f4552433732313a20696e76616c696420746f6b656e2049440000000000000000600082015250565b6000614d39601883613a1b565b9150614d4482614d03565b602082019050919050565b60006020820190508181036000830152614d6881614d2c565b9050919050565b7f4552433732313a2061646472657373207a65726f206973206e6f74206120766160008201527f6c6964206f776e65720000000000000000000000000000000000000000000000602082015250565b6000614dcb602983613a1b565b9150614dd682614d6f565b604082019050919050565b60006020820190508181036000830152614dfa81614dbe565b9050919050565b7f496e697469616c697a61626c653a20636f6e747261637420697320616c72656160008201527f647920696e697469616c697a6564000000000000000000000000000000000000602082015250565b6000614e5d602e83613a1b565b9150614e6882614e01565b604082019050919050565b60006020820190508181036000830152614e8c81614e50565b9050919050565b6000819050919050565b600060ff82169050919050565b6000819050919050565b6000614ecf614eca614ec584614e93565b614eaa565b614e9d565b9050919050565b614edf81614eb4565b82525050565b6000602082019050614efa6000830184614ed6565b92915050565b7f6f776e65722063616e27742062652061646472657373207a65726f0000000000600082015250565b6000614f36601b83613a1b565b9150614f4182614f00565b602082019050919050565b60006020820190508181036000830152614f6581614f29565b9050919050565b7f42656e656669636961726965732061727261792073686f756c64206e6f74206260008201527f65206d6f7265207468616e203235000000000000000000000000000000000000602082015250565b6000614fc8602e83613a1b565b9150614fd382614f6c565b604082019050919050565b60006020820190508181036000830152614ff781614fbb565b9050919050565b7f4e487b7100000000000000000000000000000000000000000000000000000000600052603260045260246000fd5b7f4e487b7100000000000000000000000000000000000000000000000000000000600052601160045260246000fd5b600061506782613ac2565b91507fffffffffffffffffffffffffffffffffffffffffffffffffffffffffffffffff82036150995761509861502d565b5b600182019050919050565b600081905092915050565b60006150ba82613a10565b6150c481856150a4565b93506150d4818560208601613a2c565b80840191505092915050565b60006150ec82856150af565b91506150f882846150af565b91508190509392505050565b7f546f6b656e20686173206265656e207573656420746f2070726f706f73650000600082015250565b600061513a601e83613a1b565b915061514582615104565b602082019050919050565b600060208201905081810360008301526151698161512d565b9050919050565b7f496e76616c696420746f6b656e207479706520666f722070726f706f73616c00600082015250565b60006151a6601f83613a1b565b91506151b182615170565b602082019050919050565b600060208201905081810360008301526151d581615199565b9050919050565b7f55736572732063616e27742070726f706f73652077697468207468656972207060008201527f726f706f7365642064657369676e730000000000000000000000000000000000602082015250565b6000615238602f83613a1b565b9150615243826151dc565b604082019050919050565b600060208201905081810360008301526152678161522b565b9050919050565b7f636f6d6d697373696f6e2073686f756c64206265206c657373207468616e203160008201527f3030000000000000000000000000000000000000000000000000000000000000602082015250565b60006152ca602283613a1b565b91506152d58261526e565b604082019050919050565b600060208201905081810360008301526152f9816152bd565b9050919050565b600061530b82613ac2565b915061531683613ac2565b925082820390508181111561532e5761532d61502d565b5b92915050565b7f4e487b7100000000000000000000000000000000000000000000000000000000600052601260045260246000fd5b600061536e82613ac2565b915061537983613ac2565b92508261538957615388615334565b5b828204905092915050565b600061539f82613ac2565b91506153aa83613ac2565b92508282026153b881613ac2565b915082820484148315176153cf576153ce61502d565b5b5092915050565b7f4552433732313a207472616e736665722066726f6d20696e636f72726563742060008201527f6f776e6572000000000000000000000000000000000000000000000000000000602082015250565b6000615432602583613a1b565b915061543d826153d6565b604082019050919050565b6000602082019050818103600083015261546181615425565b9050919050565b7f4552433732313a207472616e7366657220746f20746865207a65726f2061646460008201527f7265737300000000000000000000000000000000000000000000000000000000602082015250565b60006154c4602483613a1b565b91506154cf82615468565b604082019050919050565b600060208201905081810360008301526154f3816154b7565b9050919050565b7f496e697469616c697a61626c653a20636f6e7472616374206973206e6f74206960008201527f6e697469616c697a696e67000000000000000000000000000000000000000000602082015250565b6000615556602b83613a1b565b9150615561826154fa565b604082019050919050565b6000602082019050818103600083015261558581615549565b9050919050565b7f4552433732313a20617070726f766520746f2063616c6c657200000000000000600082015250565b60006155c2601983613a1b565b91506155cd8261558c565b602082019050919050565b600060208201905081810360008301526155f1816155b5565b9050919050565b7f4552433732313a207472616e7366657220746f206e6f6e20455243373231526560008201527f63656976657220696d706c656d656e7465720000000000000000000000000000602082015250565b6000615654603283613a1b565b915061565f826155f8565b604082019050919050565b6000602082019050818103600083015261568381615647565b9050919050565b7f4552433732313a206d696e7420746f20746865207a65726f2061646472657373600082015250565b60006156c0602083613a1b565b91506156cb8261568a565b602082019050919050565b600060208201905081810360008301526156ef816156b3565b9050919050565b7f4552433732313a20746f6b656e20616c7265616479206d696e74656400000000600082015250565b600061572c601c83613a1b565b9150615737826156f6565b602082019050919050565b6000602082019050818103600083015261575b8161571f565b9050919050565b7f45524337323155524953746f726167653a2055524920736574206f66206e6f6e60008201527f6578697374656e7420746f6b656e000000000000000000000000000000000000602082015250565b60006157be602e83613a1b565b91506157c982615762565b604082019050919050565b600060208201905081810360008301526157ed816157b1565b9050919050565b60008190508160005260206000209050919050565b60006020601f8301049050919050565b600082821b905092915050565b6000600883026158567fffffffffffffffffffffffffffffffffffffffffffffffffffffffffffffffff82615819565b6158608683615819565b95508019841693508086168417925050509392505050565b600061589361588e61588984613ac2565b614eaa565b613ac2565b9050919050565b6000819050919050565b6158ad83615878565b6158c16158b98261589a565b848454615826565b825550505050565b600090565b6158d66158c9565b6158e18184846158a4565b505050565b5b81811015615905576158fa6000826158ce565b6001810190506158e7565b5050565b601f82111561594a5761591b816157f4565b61592484615809565b81016020851015615933578190505b61594761593f85615809565b8301826158e6565b50505b505050565b600082821c905092915050565b600061596d6000198460080261594f565b1980831691505092915050565b6000615986838361595c565b9150826002028217905092915050565b61599f82613a10565b67ffffffffffffffff8111156159b8576159b7613e85565b5b6159c28254614438565b6159cd828285615909565b600060209050601f831160018114615a0057600084156159ee578287015190505b6159f8858261597a565b865550615a60565b601f198416615a0e866157f4565b60005b82811015615a3657848901518255600182019150602085019450602081019050615a11565b86831015615a535784890151615a4f601f89168261595c565b8355505b6001600288020188555050505b505050505050565b600081519050919050565b600082825260208201905092915050565b6000615a8f82615a68565b615a998185615a73565b9350615aa9818560208601613a2c565b615ab281613a56565b840191505092915050565b6000608082019050615ad26000830187613b57565b615adf6020830186613b57565b615aec6040830185613e00565b8181036060830152615afe8184615a84565b905095945050505050565b600081519050615b1881613981565b92915050565b600060208284031215615b3457615b3361394b565b5b6000615b4284828501615b09565b9150509291505056fea2646970667358221220c1add94fec6f9cd6e3f078e4c68ae03426c0b62647ba474958494ffb61044f4364736f6c63430008110033",
  "immutableReferences": {},
  "source": "pragma solidity 0.8.17;\n\n//  SPDX-License-Identifier: UNLICENSED\n\n\nimport \"@openzeppelin/contracts-upgradeable/utils/CountersUpgradeable.sol\";\nimport \"@openzeppelin/contracts-upgradeable/access/OwnableUpgradeable.sol\";\nimport \"@openzeppelin/contracts-upgradeable/token/ERC721/extensions/ERC721URIStorageUpgradeable.sol\";\n\n\n/// @title 100% NFT contract\n\n\n\ncontract HundredPercentNFT is ERC721URIStorageUpgradeable {\n\n    //  use the counter library\n    using CountersUpgradeable for CountersUpgradeable.Counter;\n    CountersUpgradeable.Counter private _tokenIds;\n\n    \n    address private _owner;\n    bool private locked;\n    uint256 private _royaltyForProposalWithOriginal;            //  percentage for holders of NFTs proposed with Originals\n    uint256 private _royaltyForProposalWithReplica;             //  percentage for holders of NFTs proposed with Replicas\n\n\n    /**\n        @dev struct for the proposal\n        @param _proposer is the address of the entity making the proposal\n        @param _usedId is the token id used to generate the proposal\n     */\n    struct Proposal {\n\n        address _proposer;\n        uint256 _usedId;\n        NFT_TYPE _typeUsed;\n\n    }\n\n    /**\n        @dev struct for the created replicas. The replicas are colored shirts unlike the originals which are white\n        @param _originallyProposed is the id of white shirt that will be used to generate these colored shirts\n        @param _proposer is the proposer of the original shirt that is used to generate the colored shirts\n     */\n    struct ColoredShirt {\n\n        uint256 _originallyProposed;\n        address _proposer;\n\n    }\n\n    /**\n        @dev    an enumerator to classify shirt types based on if they are originals or replicas\n        @dev    ORIGINAL is a proposed shirt\n        @dev    REPLICA is a colored shirt that was bought as a replica    \n     */\n\n    enum NFT_TYPE {\n        \n        ORIGINAL, \n        REPLICA,\n        PROPOSED,\n        OTHERS\n\n    }\n\n    \n\n    /**\n        @dev    map the proposed token via its id to the Proposal Struct\n     */\n    mapping(uint256 => Proposal) private _proposals;\n\n    /**\n        @dev    to ensure that an NFT can only be used to make proposals once\n     */\n    mapping(uint256 => bool) private _usedForProposal;\n\n    /**\n        @dev    map the id of the minted colored shirt to the ColoredShirt struct\n     */\n    mapping(uint256 => ColoredShirt) private _coloredShirts;\n\n\n    /**\n        @dev    map the token id of a shirt nft to the shirt type\n     */\n    mapping(uint256 => NFT_TYPE) private _nft_type;\n\n\n    /// @dev    modifier that restricts unauthorized access to functions with restricted access\n\n\n\n    /**\n    *   [1] a map to track tokens that have been used to propose. it will be a map of token ids => struct(used, proposer)\n    *   [2] a function to check if a token has been used to make proposal\n    *   [3] to propose, they must not be the initial proposer of that id to be used\n    *   [4] a function to collect auctions\n     */\n\n    modifier _onlyOwner() {\n\n        require(msg.sender == _owner, \"Invalid sender\");\n        _;\n    }\n\n\n     /** \n      * @dev modifier to avoid reEntrancy attack\n     */\n\n    modifier noReEntrancy() {\n\n        require(!locked, \"no re-entrancy\");\n        locked = true;\n        _;\n        locked = false;\n    }\n\n    \n    /**\n        @dev an initializer function to replace reEntrancy\n     */\n    function initialize(string memory _tokenName, string memory _tokenSymbol, address _defaultOwner, uint256 _proposedWithOriginal, uint256 _proposedWithReplica) initializer public {\n        __ERC721_init(_tokenName, _tokenSymbol);\n        _owner = _defaultOwner;\n        \n        require(_proposedWithOriginal < 100 && _proposedWithReplica < 100, \"Royalties must be lesser than 100\");\n        \n        _royaltyForProposalWithOriginal =  _proposedWithOriginal;\n        _royaltyForProposalWithReplica = _proposedWithReplica;\n    }\n\n\n    /// @custom:oz-upgrades-unsafe-allow constructor\n    constructor() {\n        _disableInitializers();\n    }\n\n\n\n     /** \n      * @dev the private function to mint a token to the specified address\n     */\n\n    function _mintNFT(address recipient, string calldata tokenURI) private returns (uint256) {\n         \n         _tokenIds.increment();\n\n        uint256 newItemID = _tokenIds.current();\n        _mint(recipient, newItemID);\n        _setTokenURI(newItemID, tokenURI);\n        \n\n        return newItemID;\n\n\n    }\n\n    \n   \n\n    /** \n      * @dev the function to propose new shirt nfts\n\n        The proposer except the contracts owner needs to use the shirt proposed by another person\n\n        @notice that the proposer of the colored shirt's original must not be the msg.sender\n        @notice nft of type OTHERS can't be used to propose\n        @notice the shirt type was set to original for the owner and proposed for any other proposers\n     */\n\n    function propose(uint256 _proposeWith, string calldata tokenURI) external  {\n\n\n        require(_usedForProposal[_proposeWith] == false, \"Token has been used to propose\");\n\n        if (msg.sender != _owner) {\n\n            require(ownerOf(_proposeWith) == msg.sender, \"Invalid token owner\");\n            require(_nft_type[_proposeWith] == NFT_TYPE.ORIGINAL || _nft_type[_proposeWith] == NFT_TYPE.REPLICA, \"Invalid token type for proposal\");\n            require(_coloredShirts[_proposeWith]._proposer != msg.sender, \"Users can't propose with their proposed designs\");\n            \n\n        }\n\n        if (_proposeWith != 0) {\n\n            require(ownerOf(_proposeWith) == msg.sender, \"Invalid token owner\");    //  admin must either propose with id 0 or their token\n            _usedForProposal[_proposeWith] = true;\n\n        }\n\n        uint256 _proposedId = _mintNFT(msg.sender, tokenURI);\n        _proposals[_proposedId] = Proposal(msg.sender, _proposeWith, _nft_type[_proposeWith]); \n\n        /**\n            @dev    setting the nft type of the proposed shirts\n            @notice set as ORIGINAL if proposed  by the contract owner\n            @notice set as PROPOSED if proposed by other adddresses \n         */\n        msg.sender == _owner ? _nft_type[_proposedId] = NFT_TYPE.ORIGINAL : _nft_type[_proposedId] = NFT_TYPE.PROPOSED; \n\n       emit Proposed(_proposedId, _proposeWith, msg.sender);\n\n    }\n\n\n\n     /** \n      * @dev internal function to calculate and split the commission from the actual payment\n      * to be sent to the holder of the original token and the owner of the contract\n     */\n\n\n    function _splitPayment(uint256 _price, uint256 _commissionedPercent) private pure returns(uint256, uint256) {\n\n        require(_commissionedPercent < 100, \"commission should be less than 100\");\n        uint256 _deliveredPercent = 100 - _commissionedPercent;\n        uint256 _commissionedAmount = (_price/100) * _commissionedPercent;\n        uint256 _deliveredAmount = (_price/100) * _deliveredPercent;\n\n        return (_deliveredAmount, _commissionedAmount);\n\n    }\n\n\n     /** \n      * @dev the function for a buyer to buy the replica of an original. The buyer mints it on demand while he sends the \n      * payment for the replica\n      * The `_splitPayment` function will split the payment between the original token holder and the contract owner\n      * Payment will not be splitted if the original token holder is the smart contract. 100% of the payment goes to the contract owner\n    \n        The proposer of the colored shirt replica is tracked\n\n        @notice the shirt type was set to replica\n     */\n\n    function buyNFT(uint256 _originalTokenId, uint256 _price, string calldata _newURI, bool _useDiscount) external noReEntrancy payable {\n\n        if (_useDiscount == false) {\n            require(_price != 0, \"Value can't be zero\");\n        }\n\n        require(_exists(_originalTokenId) == true, \"Token does not exist\");\n        require(_nft_type[_originalTokenId] == NFT_TYPE.ORIGINAL || _nft_type[_originalTokenId] == NFT_TYPE.PROPOSED, \"Replica can only be purchased on Proposed or Original shirts\" );\n        address _originalTokenOwner = ownerOf(_originalTokenId);\n        require(msg.value == _price, \"Token sent doesn't match price\");\n\n        uint256 _deliveredPayment;\n        uint256 _commissionedPayment;\n\n        //  if price isn't zero, execute splitting\n\n        if ( _price != 0 ) {\n\n            if(_originalTokenOwner == _owner) {\n\n                (bool sentToContractOwner, ) =   payable(_owner).call{value:msg.value}(\"\"); \n                require(sentToContractOwner);\n\n            } else {\n\n                if ( _proposals[_originalTokenId]._typeUsed == NFT_TYPE.ORIGINAL ) {\n\n                    (_deliveredPayment, _commissionedPayment) = _splitPayment(msg.value, _royaltyForProposalWithOriginal);\n\n                }\n\n                if ( _proposals[_originalTokenId]._typeUsed == NFT_TYPE.REPLICA ) {\n\n                    (_deliveredPayment, _commissionedPayment) = _splitPayment(msg.value, _royaltyForProposalWithReplica);\n\n                }\n\n                //(_deliveredPayment, _commissionedPayment) = _splitPayment(msg.value, _commission);\n\n                (bool sentToContractOwner, ) =   payable(_owner).call{value: _deliveredPayment}(\"\");                           \n                (bool sentToOriginalTokenOwner, ) =   payable(_originalTokenOwner).call{value: _commissionedPayment}(\"\");   \n\n                require(sentToContractOwner && sentToOriginalTokenOwner, \"Failed to send Ether\"); \n\n            }\n\n        }\n\n        \n\n                          \n        uint256 _boughtId = _mintNFT(msg.sender, _newURI);\n\n        if (_useDiscount == true && _price == 0) {\n\n            _nft_type[_boughtId] = NFT_TYPE.ORIGINAL;\n\n        } else {\n\n             _coloredShirts[_boughtId] = ColoredShirt(_originalTokenId, _proposals[_originalTokenId]._proposer);\n            _nft_type[_boughtId] = NFT_TYPE.REPLICA;\n\n\n        }\n\n            \n        \n        \n        emit BoughtNFT(msg.sender, _originalTokenOwner, _originalTokenId, _boughtId, _price, _commissionedPayment, _deliveredPayment);\n        \n\n    }\n\n\n   \n    /**\n\n        @dev    function to collect token during auction\n        @notice the SoldOut event is emitted\n\n        the contract must be approved for successful token collection\n\n        @notice the delivered and commissioned payment variables. \n                Delivered payment is paid to the seller of the token\n                Commissioned payment is delivered to the contract owner\n\n   \n    */\n   \n\n    function collectToken(address _from, uint256 _tokenId, uint256 _price, uint256 _commission) external noReEntrancy payable {\n\n        require(_nft_type[_tokenId] == NFT_TYPE.PROPOSED, \"Only proposed shirts can be auctioned\");\n        require(msg.value > 0, \"Value can't be zero\");\n        require(msg.value == _price, \"Token sent doesn't match price\");\n        require(ownerOf(_tokenId) == _from, \"Invalid token owner\");\n        require(_isApprovedOrOwner(address(this), _tokenId), \"Contract not approved for this token\");\n\n        (uint256 _deliveredPayment, uint256 _commissionedPayment) = _splitPayment(msg.value, _commission);\n\n\n        if(_from == address(this) || _from == _owner) {\n            (bool sent, ) =   payable(_owner).call{value: msg.value}(\"\");   \n            require(sent, \"failed to send Ether\");                          // buyer pays the owner\n            _transfer(_from, msg.sender, _tokenId);\n        \n        } else {\n            \n            /**\n                @dev    20% of the amount paid for the NFT goes to the Contract owner\n                        80% goes to the seller of the NFT\n\n            */                                                      \n            \n            (bool sentToContractOwner, ) =   payable(_owner).call{value: _commissionedPayment}(\"\");                           \n            (bool sentToSeller, ) =   payable(_from).call{value: _deliveredPayment}(\"\");   \n\n            require(sentToContractOwner && sentToSeller, \"failed to send Ether\"); \n            \n            ERC721Upgradeable(address(this)).transferFrom(_from, msg.sender, _tokenId);            // the contract releases the token to the buyer\n        }\n        \n        \n        emit SoldOut(_from, msg.sender, msg.value, block.timestamp);\n\n    }\n\n\n    /**\n        @dev    function to release airdrop of orignal nfts\n        @notice the token type is set to original\n     */\n\n    function releaseAirdrop(address[] calldata _beneficiaries, string calldata _tokenURI, NFT_TYPE _nftType) external _onlyOwner {\n\n        require( _beneficiaries.length <= 25, \"Beneficiaries array should not be more than 25\");\n        for (uint256 index = 0; index < _beneficiaries.length; index++) {\n            uint256 _airdropId = _mintNFT(_beneficiaries[index] , _tokenURI);\n            _nft_type[_airdropId] = _nftType;\n        }\n\n    }\n\n    /**\n        @dev    function to fetch the shirt type given the shirt's token id\n     */\n    function getNftType(uint256 _tokenId) external view returns (NFT_TYPE) {\n        require(_exists(_tokenId) == true, \"Token does not exist\");\n        return _nft_type[_tokenId];\n    }\n\n\n    /**\n        @dev    Feature to burn token\n    */\n\n    function burn(uint256 _tokenId) external {\n\n        require(_ownerOf(_tokenId) == msg.sender || msg.sender == _owner, \"Not  authorized to burn token\");\n        _burn(_tokenId);\n\n    }\n\n\n    \n    /// @dev    function to transfer the ownership of the contract\n    /// @notice the new owner must not be ether address\n    /// @notice the OwnerShipTransferred event is emitted\n\n    function transferOwnerShip(address _newOwner) external _onlyOwner {\n\n        require(_newOwner != address(0), \"owner can't be address zero\");\n        _owner = _newOwner;\n        emit OwnerShipTransferred(msg.sender, _newOwner);\n\n    }\n\n\n    /**\n        @dev function to get the address of the contract owner\n     */\n\n    function contractOwner() external view returns (address _contractOwner) {\n        return _owner;\n    }\n\n\n    function setRoyaltiesOnProposal ( uint256 _proposedWithOriginal, uint256 _proposedWithReplica ) external _onlyOwner {\n\n        require(_proposedWithOriginal < 100 && _proposedWithReplica < 100, \"Royalties must be lesser than 100\");\n        \n        _royaltyForProposalWithOriginal =  _proposedWithOriginal;\n        _royaltyForProposalWithReplica = _proposedWithReplica;\n\n    }\n\n    function getRoyaltiesOnProposal () external view returns (uint256 _forProposedWithOriginals, uint256 _forProposedWithReplicas) {\n        return (_royaltyForProposalWithOriginal, _royaltyForProposalWithReplica);\n    }\n\n\n\n    event SoldOut(address indexed _from, address indexed _to, uint256 _value, uint256 _timeSoldOut);\n    event OwnerShipTransferred(address indexed _from, address indexed _to);\n    event BoughtNFT(address indexed _to, address indexed _originalOwner, uint256 _originalTokenId, uint256 _boughtTokenId, uint256 _price, uint256 _commissionedPayment, uint256 _deliveredPayment);\n    event Proposed (uint256 _proposedId, uint256 _proposedWith, address indexed _proposer);\n\n}\n\n\n\n\n\n\n\n\n\n\n\n\n\n\n",
  "sourcePath": "/Users/komolehin/Documents/blockchain/100-NFT/contracts/HundredPercentNFT.sol",
  "compiler": {
    "name": "solc",
    "version": "0.8.17+commit.8df45f5f.Emscripten.clang"
  },
  "schemaVersion": "3.4.11",
  "updatedAt": "2023-04-17T08:38:45.841Z",
  "networkType": "ethereum",
  "devdoc": {
    "kind": "dev",
    "methods": {
      "approve(address,uint256)": {
        "details": "See {IERC721-approve}."
      },
      "balanceOf(address)": {
        "details": "See {IERC721-balanceOf}."
      },
      "burn(uint256)": {
        "details": "Feature to burn token"
      },
      "buyNFT(uint256,uint256,string,bool)": {
        "details": "the function for a buyer to buy the replica of an original. The buyer mints it on demand while he sends the  payment for the replica The `_splitPayment` function will split the payment between the original token holder and the contract owner Payment will not be splitted if the original token holder is the smart contract. 100% of the payment goes to the contract owner The proposer of the colored shirt replica is tracked"
      },
      "collectToken(address,uint256,uint256,uint256)": {
        "details": "function to collect token during auction"
      },
      "constructor": {
        "custom:oz-upgrades-unsafe-allow": "constructor"
      },
      "contractOwner()": {
        "details": "function to get the address of the contract owner"
      },
      "getApproved(uint256)": {
        "details": "See {IERC721-getApproved}."
      },
      "getNftType(uint256)": {
        "details": "function to fetch the shirt type given the shirt's token id"
      },
      "initialize(string,string,address,uint256,uint256)": {
        "details": "an initializer function to replace reEntrancy"
      },
      "isApprovedForAll(address,address)": {
        "details": "See {IERC721-isApprovedForAll}."
      },
      "name()": {
        "details": "See {IERC721Metadata-name}."
      },
      "ownerOf(uint256)": {
        "details": "See {IERC721-ownerOf}."
      },
      "propose(uint256,string)": {
        "details": "the function to propose new shirt nfts The proposer except the contracts owner needs to use the shirt proposed by another person"
      },
      "releaseAirdrop(address[],string,uint8)": {
        "details": "function to release airdrop of orignal nfts"
      },
      "safeTransferFrom(address,address,uint256)": {
        "details": "See {IERC721-safeTransferFrom}."
      },
      "safeTransferFrom(address,address,uint256,bytes)": {
        "details": "See {IERC721-safeTransferFrom}."
      },
      "setApprovalForAll(address,bool)": {
        "details": "See {IERC721-setApprovalForAll}."
      },
      "supportsInterface(bytes4)": {
        "details": "See {IERC165-supportsInterface}."
      },
      "symbol()": {
        "details": "See {IERC721Metadata-symbol}."
      },
      "tokenURI(uint256)": {
        "details": "See {IERC721Metadata-tokenURI}."
      },
      "transferFrom(address,address,uint256)": {
        "details": "See {IERC721-transferFrom}."
      },
      "transferOwnerShip(address)": {
        "details": "function to transfer the ownership of the contract"
      }
    },
    "stateVariables": {
      "_coloredShirts": {
        "details": "map the id of the minted colored shirt to the ColoredShirt struct"
      },
      "_nft_type": {
        "details": "map the token id of a shirt nft to the shirt type"
      },
      "_proposals": {
        "details": "map the proposed token via its id to the Proposal Struct"
      },
      "_usedForProposal": {
        "details": "to ensure that an NFT can only be used to make proposals once"
      }
    },
    "title": "100% NFT contract",
    "version": 1
  },
  "userdoc": {
    "kind": "user",
    "methods": {
      "buyNFT(uint256,uint256,string,bool)": {
        "notice": "the shirt type was set to replica"
      },
      "collectToken(address,uint256,uint256,uint256)": {
        "notice": "the SoldOut event is emitted the contract must be approved for successful token collectionthe delivered and commissioned payment variables.  Delivered payment is paid to the seller of the token Commissioned payment is delivered to the contract owner"
      },
      "propose(uint256,string)": {
        "notice": "that the proposer of the colored shirt's original must not be the msg.sendernft of type OTHERS can't be used to proposethe shirt type was set to original for the owner and proposed for any other proposers"
      },
      "releaseAirdrop(address[],string,uint8)": {
        "notice": "the token type is set to original"
      },
      "transferOwnerShip(address)": {
        "notice": "the new owner must not be ether addressthe OwnerShipTransferred event is emitted"
      }
    },
    "version": 1
  }
}